101 07100050501234567891209091111A094101DestinationBank12345678OriginCompany1234567890abcdefgh5225COMPANYINC123456discretionarydataabc0123456789PPDpayments00abcdef120910   1071000500000001622000123411234567890ABC     0000111100CompanyInc     JohnSmith             dd0123456789012345622000123411234567890ABC     1111222200CompanyInc     JohnSmith             dd0123456789012345622000123411234567890ABC     0000333300CompanyInc     JohnSmith             dd012345678901234582250000030000020040000000666600000000000000CompanyInc                         000012340000001900000100000700000003000000020040000666600                                                    